:020000040800F2
:100000000004002047010008F50800088D030008DF
:10001000F108000857020008430E00080000000025
:10002000000000000000000000000000910B00082C
:100030005B0200080000000063010008810C00085A
:1000400067010008670100086701000867010008F0
:1000500067010008670100086701000867010008E0
:1000600067010008670100086701000867010008D0
:1000700067010008670100086701000867010008C0
:1000800067010008670100086701000867010008B0
:1000900067010008670100086701000867010008A0
:1000A0006701000867010008670100086701000890
:1000B0006701000867010008670100086701000880
:1000C0006701000867010008670100086701000870
:1000D0006701000867010008670100086701000860
:1000E0006701000867010008670100086701000850
:1000F0006701000867010008670100086701000840
:10010000670100086701000867010008670100082F
:10011000670100086701000867010008670100081F
:10012000670100086701000867010008670100080F
:10013000DFF80CD000F050F8004800476D110008BF
:1001400018060020704708488047084981F308884E
:1001500007480047FEE7FEE7FEE7FEE7FEE7FEE7AB
:10016000FEE7FEE7FEE7FEE745010008180600206F
:10017000310100082DE9F05F0546002092469B46BC
:1001800088460646814640241BE0284641464746AD
:10019000224600F042F853465A46C01A914110D305
:1001A00011461846224600F029F82D1A67EB01087F
:1001B0004F4622460120002100F020F817EB0009ED
:1001C0004E41201EA4F10104DFDC484631462A4698
:1001D0004346BDE8F09F0000064C074D06E0E0688E
:1001E00040F0010394E8070098471034AC42F6D37E
:1001F000FFF7A2FFE011000800120008202A04DB2C
:10020000203A00FA02F1002070479140C2F1200329
:1002100020FA03F3194390407047202A04DB203A68
:1002200021FA02F00021704721FA02F3D040C2F116
:100230002002914008431946704710B500F022FD96
:1002400000F048FD00F0D8F900F09CFA00F083FBC4
:1002500000F0D2FA10BD00BFFEE770472DE9F04173
:10026000024600250026002000230024002791F8E4
:1002700003C00CF00F0591F803C00CF0100CBCF19A
:10028000000F03D091F802C04CEA050591F800C0B8
:10029000BCF1000F31D0146800202BE04FF0010CAE
:1002A0000CFA00F3B1F800C00CEA03069E4220D11C
:1002B00083004FF00F0C0CFA03F7BC4305FA03FC64
:1002C0004CEA040491F803C0BCF1280F06D14FF0AA
:1002D000010C0CFA00FCC2F814C00AE091F803C04B
:1002E000BCF1480F05D14FF0010C0CFA00FCC2F82C
:1002F00010C0401C0828D1D31460B1F800C0BCF174
:10030000FF0F34DD546800202EE000F1080C4FF0A0
:10031000010808FA0CF3B1F800C00CEA03069E428B
:1003200021D183004FF00F0C0CFA03F7BC4305FA00
:1003300003FC4CEA040491F803C0BCF1280F05D17A
:1003400000F1080C08FA0CF8C2F8148091F803C008
:10035000BCF1480F07D100F1080C4FF0010808FA72
:100360000CF8C2F81080401C0828CED35460BDE8B9
:10037000F0810246002093680B400BB1012000E0A1
:1003800000207047416170470161704700BFFEE780
:1003900010B54FF400710D48FFF7F4FF00F078F846
:1003A0004FF480710948FFF7EDFF022000F02EFDA9
:1003B0004FF400710548FFF7E7FF052000F026FD28
:1003C0004FF400710148FFF7DDFF10BD000C014044
:1003D00010B54FF400710D48FFF7D4FF00F058F846
:1003E0004FF480710948FFF7CFFF022000F00EFDA7
:1003F0004FF400710548FFF7C7FF052000F006FD28
:100400004FF400710148FFF7BDFF10BD000C014023
:1004100070B505460026002400F02AF800BF1BE056
:100420004FF400711148FFF7ADFF022000F0EEFC21
:100430004FF400710D48FFF7A7FF6006040E4FF45C
:1004400080710A48FFF795FF08B1601CC4B2012013
:1004500000F0DCFC701CC6B2082EE1DB15B9FFF71A
:10046000B7FF01E0FFF794FF204670BD000C01408C
:1004700008B54FF48070ADF8000048208DF80300F7
:1004800069460248FFF7EAFE08BD0000000C014083
:1004900008B54FF48070ADF8000003208DF802001D
:1004A00010208DF8030069460148FFF7D7FE08BD0C
:1004B000000C014010B5FFF7EBFF4FF480710C48C2
:1004C000FFF762FF4FF400710948FFF75DFF052059
:1004D00000F09CFC4FF480710548FFF753FF0620A5
:1004E00000F094FC4FF400710148FFF74BFF10BD82
:1004F000000C014010B5FFF7CBFF4FF400710C4822
:10050000FFF740FF4FF480710948FFF73BFF4FF4BE
:1005100000710748FFF738FF062000F077FC4FF422
:1005200080710348FFF730FF062000F06FFC10BD1C
:10053000000C014010B50024FFF79AFF4FF48071C2
:100540001248FFF721FF012000F060FC4FF400711A
:100550000E48FFF719FF012000F058FC07E0601C6F
:10056000C4B2FA2C03DDFFF7C5FF012010BD4FF424
:1005700080710648FFF7FDFE0028F0D14FF40071AE
:100580000248FFF7FFFE0020F0E70000000C0140EA
:1005900070B504460025FFF77BFF4FF40071154846
:1005A000FFF7F0FE00BF22E004F08000002805DD28
:1005B0004FF480710F48FFF7E7FE04E04FF48071BD
:1005C0000C48FFF7DFFE6006040E4FF40071094887
:1005D000FFF7DAFE022000F019FC4FF40071054825
:1005E000FFF7D0FE022000F011FC681CC5B2082DF8
:1005F000DADB70BD000C014008B50121082000F0D5
:1006000049FA4FF44070ADF8000003208DF8020065
:1006100010208DF8030069460648FFF71FFE4FF4CF
:1006200000710448FFF7B0FE4FF480710148FFF7F6
:10063000ABFE08BD000C014010B54FF400510D4851
:10064000FFF7A0FE00F018F84FF480410948FFF7CB
:1006500099FE022000F0DAFB4FF400510548FFF745
:1006600093FE052000F0D2FB4FF400510148FFF744
:1006700089FE10BD000C014008B54FF48040ADF874
:10068000000003208DF8020010208DF80300694659
:100690000148FFF7E3FD08BD000C014010B5FFF76E
:1006A000EBFF4FF480410C48FFF76EFE4FF4005112
:1006B0000948FFF769FE052000F0A8FB4FF48041D0
:1006C0000548FFF75FFE062000F0A0FB4FF4005145
:1006D0000148FFF757FE10BD000C014010B5FFF7B1
:1006E000CBFF4FF400510C48FFF74CFE4FF4804114
:1006F0000948FFF747FE4FF400510748FFF744FE53
:10070000062000F083FB4FF480410348FFF73CFED6
:10071000062000F07BFB10BD000C014070B50446C4
:100720000025FFF7A9FF4FF400511548FFF72AFEF7
:1007300000BF22E004F08000002805DD4FF4804176
:100740000F48FFF721FE04E04FF480410C48FFF70B
:1007500019FE6006040E4FF400510948FFF714FE1D
:10076000022000F053FB4FF400510548FFF70AFE4A
:10077000022000F04BFB681CC5B2082DDADB70BD0F
:10078000000C014008B50121082000F083F94FF466
:10079000C040ADF8000003208DF8020010208DF855
:1007A000030069460648FFF759FD4FF4005104481D
:1007B000FFF7EAFD4FF480410148FFF7E5FD08BD72
:1007C000000C01402DE9F0410446204600F040F8BD
:1007D0000546611CC8B200F03BF8064646EA05270C
:1007E0004FF47A5107FB01F0C11700EB51414FEA7A
:1007F000E1384046BDE8F08110B500216B2000F0E3
:1008000044F80721192000F040F806211A2000F0D2
:100810003CF818211B2000F038F81F211C2000F0A4
:1008200034F810BD10B50024752000F011F804460E
:10083000214602A000F008FB10BD00004D505536C7
:1008400030353020494420697320307825780A00FB
:1008500070B50446FFF72EFED020FFF799FEFFF794
:1008600069FE2046FFF794FEFFF764FEFFF722FEC5
:10087000D120FFF78DFEFFF75DFE0020FFF7C8FDDA
:100880000546FFF737FE284670BD70B505460C4695
:10089000FFF710FED020FFF77BFEFFF74BFE284648
:1008A000FFF776FEFFF746FE2046FFF771FEFFF7E3
:1008B00041FEFFF71FFE70BD014642F228324A4357
:1008C0004FF0E0235A6101221A6100229A6100BFB1
:1008D0004FF0E022106900F001021AB100F48032FA
:1008E000002AF5D000224FF0E0231A619A61704788
:1008F00000BFFEE77047000070B500240CE0002543
:1009000006E00020074901EBC4114855681C85B278
:10091000802DF6DB601C84B2082CF0DB00F072F84E
:1009200070BD00001800002070B504462546E11790
:1009300004EB11710911A4EB0111C8B200F07EF8AB
:100940002546E11704EB1171C1F3071141F01000C6
:1009500000F074F870BD10B5AE2000F06FF8D5202F
:1009600000F06CF8802000F069F8202000F066F8B4
:10097000022000F063F8A82000F060F83F2000F0AB
:100980005DF8DA2000F05AF8122000F057F8A120A4
:1009900000F054F8C82000F051F8402000F04EF864
:1009A000D32000F04BF8002000F048F8812000F040
:1009B00045F8CF2000F042F8D92000F03FF8F120B0
:1009C00000F03CF8DB2000F039F8202000F036F889
:1009D0008D2000F033F8142000F030F8A42000F04F
:1009E0002DF8A62000F02AF8AF2000F027F8FFF736
:1009F00083FF10BD10B5044604F1B001C8B200F089
:100A00001DF810BD70B5002413E02046FFF7F2FF7B
:100A10000020FFF789FF002507E0074901EBC4111B
:100A2000485D00F021F8681C85B2802DF5DB601C64
:100A300084B2082CE9DB70BD1800002010B5044614
:100A4000FFF72CFE7820FFF769FEFFF7F5FD002089
:100A5000FFF764FEFFF7F0FD2046FFF75FFEFFF7AC
:100A6000EBFDFFF73BFE10BD10B50446FFF716FE89
:100A70007820FFF753FEFFF7DFFD4020FFF74EFE23
:100A8000FFF7DAFD2046FFF749FEFFF7D5FDFFF738
:100A900025FE10BD29B1064A92690243044B9A61B2
:100AA00004E0034A92698243014B9A617047000057
:100AB0000010024030B500210022002400232D4DFB
:100AC0006D6805F00C0121B1042905D0082923D156
:100AD00005E0294D056022E0284D05601FE0254D09
:100AE0006D6805F47012022505EB9242214D6D6888
:100AF00005F480341CB9224D554305600BE01D4DB3
:100B00006D6805F400351DB11E4D5543056002E0CA
:100B10001A4D5543056002E0174D056000BF00BF48
:100B2000144D6D6805F0F0010909174D6B5C0568FF
:100B3000DD4045600F4D6D6805F4E061090A124D16
:100B40006B5C4568DD4085600A4D6D6805F4605159
:100B5000C90A0D4D6B5C4568DD40C560054D6D688B
:100B600005F44041890B094D6B5CC568B5FBF3F595
:100B7000056130BD0010024000127A00001BB70072
:100B800000093D00808D5B00000000201000002067
:100B9000704710B500F002F810BD00000CB5002041
:100BA000019000903448006840F480303249086079
:100BB00000BF3148006800F4003000900198401CEC
:100BC0000190009818B90198B0F5A06FF1D12A48AA
:100BD000006800F4003010B10120009001E0002016
:100BE00000900098012844D12448006840F010008B
:100BF000224908600846006820F0030008600846A3
:100C0000006840F0020008601B4840681A494860CC
:100C10000846406848600846406840F48060486084
:100C20000846406820F47C1048600846406840F45C
:100C3000F01048600846006840F08070086000BF0F
:100C40000D48006800F000700028F9D00A4840689C
:100C500020F00300084948600846406840F0020060
:100C6000486000BF0448406800F00C000828F9D133
:100C700001E000BFFEE70CBD001002400020024072
:100C80007047000010B51048006840F001000E49A0
:100C90000860084640680D4908400B49486008460E
:100CA00000680B490840084908600846006820F4BD
:100CB000802008600846406820F4FE00486000205C
:100CC0008860FFF766FF10BD001002400000FFF8CB
:100CD000FFFFF6FE00B585B0012144F20400FFF7E6
:100CE000D9FE4FF40070ADF8100003208DF812000B
:100CF00018208DF8130004A91348FFF7AFFA4FF43A
:100D00008060ADF8100004208DF8130004A90E488F
:100D1000FFF7A4FA4FF4E13000900020ADF8040092
:100D2000ADF80600ADF80800ADF80C000C20ADF8E9
:100D30000A006946054800F017F80121034800F051
:100D400007F805B000BD0000000801400038014070
:100D500021B1828942F40052828104E082894DF6F9
:100D6000FF731A40828170472DE9F04786B005462F
:100D70000E460024A24600BF00BF00272F462C8A43
:100D80004CF6FF700440F08804432C82AC894EF688
:100D9000F3100440B0883189084371890843044343
:100DA000AC81AC8A4FF6FF400440B0890443AC826A
:100DB00001A8FFF77FFE1248874202D1DDF810A09C
:100DC00001E0DDF80CA00AEBCA0000EB0A10316864
:100DD0008900B0FBF1F86420B8FBF0F004012009B1
:100DE000642101FB1089322000EB0910B0FBF1F007
:100DF00000F00F0004432C8106B0BDE8F08700002E
:100E000000380140C1F3080282807047014601EBBF
:100E1000C1024FF0E0235A6101221A6100229A6157
:100E200000BF4FF0E022106900F001021AB100F497
:100E30008032002AF5D000224FF0E0231A619A6137
:100E4000704700BFFEE700000FB4054B10B503A9C3
:100E5000044A029800F018F810BC5DF814FB00007A
:100E6000491100081400002002E008C8121F08C140
:100E7000002AFAD170477047002001E001C1121F1B
:100E8000002AFBD1704700002DE9FF4F8DB09B4633
:100E90000F460446002606E025280BD05A460F9937
:100EA0009047641C761C20780028F5D111B030469C
:100EB000BDE8F08F0025A8460122984900E00543CF
:100EC00014F8013F203B02FA03F00842F7D12078E2
:100ED0002E2817D114F8010F45F004052A280ED04A
:100EE0006FF02F022078A0F1300109290AD808EB11
:100EF000880102EB410100EB0108641CF2E757F89E
:100F0000048B641C20786C280DD004DC4C2812D093
:100F10006A2811D104E074280DD07A280CD10AE097
:100F200045F4001507E0617845F48015814202D14F
:100F3000641C05F58015641C2278692A45D008DCFC
:100F4000002AB3D0582A69D0632A10D0642A08D165
:100F50003BE0702A67D0732A13D0752A5CD0782AB8
:100F60005CD010465A460F999047761CD3E017F88C
:100F7000040B8DF8000000208DF80100E9460120E7
:100F800003E057F8049B4FF0FF3069074FF000056E
:100F900001D40AE06D1C45450DDA8542FADB19F8EB
:100FA00005100029F6D106E06D1C8542FCDB19F81E
:100FB00005100029F8D12E4404E019F8010B5A4617
:100FC0000F9990476D1EF8D2A5E00A200021CDE9C7
:100FD0000801C5F3025002280DD001CFC117031E2E
:100FE00071F100030DDA4FF0000CD0EB0C006CEB4C
:100FF00001012D2308E0FF1D27F00707F7E8020194
:10100000EDE72B0504D52B238DF8283001233BE099
:10101000EB0739D02023F7E70A2000E01020002159
:10102000CDE9080107E01020002145F00405CDE9D5
:1010300008014FF00808C5F3025002280FD001CF75
:1010400000214FF0000A2B071FD5702A0DD0DDE9D3
:1010500008C38CF0100C5CEA030C0CD015E0FF1DEB
:1010600027F00707F7E80201EBE740228DF8282078
:101070004FF0010A0BE050EA010306D030238DF84F
:1010800028308DF8292002239A46582A04D024A219
:101090000DF120090B9209E026A2F9E7DDE908230A
:1010A000FFF768F80B9B9B5C09F8013D50EA0102D1
:1010B000F4D1ADEB090020300890680701D44FF05F
:1010C00001080899884502DDA8EB010000E0002036
:1010D0008046002506E00AA85A46405D0F999047D1
:1010E0006D1C761C5545F6DB04E030205A460F99FE
:1010F0009047761CB8F10001A8F10108F5DC05E085
:1011000019F8010B5A460F999047761C0899481E0A
:1011100008900029F4DC641CC5E6000009280100E1
:10112000303132333435363738396162636465665D
:10113000000000003031323334353637383941421F
:10114000434445460000000070B504460D46E1B238
:101150000548FFF757FE00BF0348008800F08000F5
:101160000028F9D0204670BD00380140FFF765F82F
:101170001DE0FFF757FB3B20FFF724FB0446214609
:101180000BA0FFF761FE3D20FFF71CFB0446214644
:101190000BA0FFF759FE3F20FFF714FB0446214642
:1011A0000BA0FFF751FE4FF47A70FFF785FBE0E7E5
:1011B000414343454C5F584F55543A25640A00005B
:1011C000414343454C5F594F55543A25640A00004A
:1011D000414343454C5F5A4F55543A25640A000039
:1011E000001200080000002018000000680E00082F
:1011F000181200081800002000060000780E0008F1
:1012000000000000010203040102030406070809AC
:081210000204060800000000C2
:0400000508000131BD
:00000001FF
